:100000000EC028C02BC626C044C7EFC523C022C0DF
:1000100021C0A1C61FC01EC01DC01CC01BC0112412
:100020001FBECFE5D1E0DEBFCDBF10E0A0E6B0E05F
:10003000EAE8FFE002C005900D92A636B107D9F7B5
:1000400020E0A6E6B0E001C01D92A63DB207E1F7B0
:1000500097D599C7D5CFCF93DF93D82FC62F80914F
:1000600060008D1739F08D2FAED6D09360008FEFE2
:1000700080936700C0938600C13031F41092A600CF
:100080001092860080E0B4D680918000C81710F4EA
:10009000C111C82F9091A600981718F4C111809330
:1000A000A6008091670081111AC0809166008111BD
:1000B0001AC0909186008091A600981720F4209194
:1000C0008200222341F0891720F42091810022230D
:1000D00011F0981308C0C093A6008C2F01C080E0D7
:1000E000DF91CF9185C6DF91CF9108951092660080
:1000F000E62FEF70EE0F11F460E00AC0E23011F469
:1001000061E006C064FDEF5FF0E0ED57FF4F6081F6
:10011000A2CF482F862F1092660020918000309148
:100120008400909183002317E8F43917D8F470E025
:10013000603450F4832F821B90E0FAD666E09595E8
:1001400087956A95E1F71AC0892F831B605471095E
:1001500090E0EED656E0959587955A95E1F7632F96
:10016000680F10C0291760F4921B682F70E0892F68
:1001700090E0DED6880F892F881F990B622FF0CF71
:10018000682F660F842F67CF91E09093660060918F
:10019000AD0061CF809167008823C9F081508093C2
:1001A0006700811149C0909186008091A600981740
:1001B00020F420918200222349F0891720F4209115
:1001C0008100222319F0981337C0892F11C680911E
:1001D00069008F5F803119F0809369000895109253
:1001E0006900909168009F5F90936800309166006D
:1001F000209186008091A600332351F0821718F4D5
:100200002091A40009C02817A8F42091A4000CC0D4
:10021000821730F42091810092130EC08F5F07C0C7
:10022000281740F420918200921306C081508093D9
:10023000A600DED510926800089590E080509040AE
:1002400088C68F3F910509F008F4F7CF80E0089544
:10025000E199FECF90E08050904083C669E083E44E
:10026000F7DF62E184E4F4DF6BE185E4F1DF64E26F
:1002700086E4EEDF6EE287E4EBDF67E388E4E8DF45
:1002800060E489E4E5DF69E48AE4E2DF62E58BE4C7
:10029000DFDF6BE58CE4DCDF64E68DE4D9DF6DE65F
:1002A0008EE4D6DF66E78FE4D3DF60E880E5D0DF59
:1002B00069E881E5CDDF62E982E5CADF6BE983E5C4
:1002C000C7DF64EA84E5C4DF6DEA85E5C1DF66EB7C
:1002D00086E5BEDF6FEB87E5BBDF68EC88E5B8DF5E
:1002E00061ED89E5B5DF6BED8AE5B2DF64EE8BE5A4
:1002F000AFDF6DEE8CE5ACDF66EF8DE5A9DF6FEF6C
:100300008EE5A6CF0F931F93CF93E199FECF80E0A8
:1003100090E01FD68F3F21F4CF911F910F9151C0D4
:100320000FE710E0C0E0CF5F8C2F87DFF8018193EB
:100330008F01C630C1F781E190E00BD68093A50014
:1003400082E190E006D68093AC0083E190E001D694
:100350008093AB008DE190E0FCD58093A30082E216
:1003600090E0F7D58093AA0084E290E0F2D58093E4
:10037000A90085E290E0EDD58093A8008FE290E09F
:10038000E8D58093850088E390E0E3D58093A700CB
:100390008AE390E0DED58093AD008BE390E0D9D581
:1003A0008093A40007E810E0C3E48C2F46DFF80137
:1003B00081938F01CF5FCF35C1F7CF911F910F91FF
:1003C0000895CF93C1E060E08C2F42DFCF5FCF3F35
:1003D000D1F763E081E03CDF60E082E039DF60E09C
:1003E00083E036DF60E084E033DF6FEF85E030DF0D
:1003F0006FE786E02DDF63E087E02ADF6DE088E0CD
:1004000027DF60EC81E124DF60E082E121DF60E052
:1004100083E11EDF66E08DE11BDF66E082E218DF2C
:1004200061E084E215DF6FEF85E212DF6AEC8FE2B4
:100430000FDF64E088E30CDF6FE78AE309DF63E046
:100440008BE306DF0BDF60E080E002DFCF915ACF65
:100450000F931F93CF93DF938F3F910511F008F017
:1004600082C0162FEC018F50823048F08FE090E070
:1004700070D5082F80E190E06CD5081374C0C232AB
:10048000D10509F459C030F5C830D10509F445C08B
:1004900060F4C130D10508F45FC0C730D10508F061
:1004A00062C0FE01E258FF4F56C0C231D105F1F1E2
:1004B00038F4C131D10509F04FC01093A5004CC0EC
:1004C000C331D105B1F1CD31D10509F045C010934B
:1004D000A30042C0C833D105C1F160F4C532D105D3
:1004E00071F1CF32D10571F1C432D105A9F5109364
:1004F000A90032C0CB33D10559F130F4CA33D1054C
:1005000059F51093AD0028C0CE01835491094C9742
:1005100018F5FE01EC5BFF4F1EC01D3011F01830C6
:1005200011F5DF91CF911F910F914BCF1093AC003C
:1005300013C01093AB0010C01093AA000DC010930D
:10054000A8000AC01093850007C01093A70004C03C
:100550001093A40001C01083612F8C2FDF91CF91E5
:100560001F910F9175CEDF91CF911F910F9108953B
:10057000FF920F931F93CF93DF938C01F62E862F5C
:100580008770C1E0D0E001C0CC0F8A95EAF7C801BE
:1005900058DEF3FE03C06C2F682B03C0C0956C2F90
:1005A0006823C801DF91CF911F910F91FF9050CF29
:1005B00081E02BD481E08093B00080937000089597
:1005C0001092AE001092BD0008959091AE00983048
:1005D00040F4E92FF0E0E254FF4F80839F5F909357
:1005E000AE00089581E08093BD0008958091BD0024
:1005F000882319F01092BD0081E008952091BE007B
:100600009091B1006091BF008091C00029135DC03E
:100610009091B200691359C09091B300891355C0ED
:1006200022FD1FC080916F0090E00197880F991FF5
:10063000880F991F322F3370830F911D019623FF6E
:1006400004C006DF80916A002DC0FBDD8093BC00F2
:100650008091BC009091B20098133FC080916A00D5
:1006600030C0822F8770853041F480916A0080FD10
:1006700034C060936F00816025C0843019F48DE12F
:1006800090E009C0863019F487E090E004C087301C
:1006900021F588E090E023FF07C0DADE80916A0050
:1006A00082FD1BC084600EC0CCDD8093BC008091B5
:1006B000BC009091B200981310C080916A0081FD37
:1006C0000CC0826080936A0073CF2093B100609366
:1006D000B2008093B3001092700008952091BE0084
:1006E0003091B1008091BF006091C0009091C10035
:1006F00023132AC03091B200831326C03091B30077
:10070000631322C03091B40093131EC09091700007
:10071000911124C0322F337090E0830F911D019608
:100720002C70283029F02C3069F02430B9F404C042
:1007300064FF14C01DDF07C084DD9091B3008913EE
:100740000DC001C085DE34CF2093B1008093B2008C
:100750006093B3009093B400109270000895CF930B
:10076000DF932091AE008091BE00233001F581110E
:1007700011C09091BF0091111AC09091C0009111C9
:1007800016C08EE18093AF0010926A0081E0DF9185
:10079000CF913AC38F3F59F49091BF00911107C098
:1007A0009091C0009F3F19F41092AF00BAC04091E1
:1007B000AB00442389F087FD0FC09091BF00907E6D
:1007C000903E51F0882309F4ACC050E090E0481707
:1007D000590709F0A6C00AC087FD8FC09091A300F9
:1007E00095FD8BC090917F0089139BC081E090E0C4
:1007F000FC01E254FF4F6081362F307E3034B9F176
:1008000018F4303251F08DC0303689F1303E09F0A5
:1008100088C0A9EBB0E0EF0148C030E0039628178C
:10082000390709F07EC06F716F3109F07AC091818C
:10083000692F6F7780916200681313C08091A300C5
:1008400097FF03C080FF03C004C080FF02C081E0A7
:1008500001C082E05EDC8FEF8093620010926D0039
:1008600060C06093620081E080936D005AC030E008
:1008700002962817390709F054C08FEF8093610062
:1008800010926C008091A30065FF03C080FF03C03D
:1008900004C080FF02C081E001C082E0DF91CF91FF
:1008A00025CC80E0AC3BB80781F09D9189919817E9
:1008B000C1F36093B90081818093BA0082818093F3
:1008C000BB0081E080936B002CC010926B0063FF33
:1008D00028C0862F837090E0982F88272181820F6F
:1008E000911D62FF05C062810196DF91CF91B0CD6D
:1008F00062810196DF91CF913BCE982F907C903C06
:1009000081F49091A30095FF0CC09091A5008913EC
:1009100008C09091BF008091AC00981302C082E0A3
:1009200066CFDF91CF9108958091AE008230F9F0CB
:100930009091AF009923D1F09091BE00292F20779C
:100940002037A1F42EE12093AF00833019F08430DA
:1009500061F008959F3F41F48091BF00811104C070
:100960008091C0008F3F19F049CEB8CEF8CE0895DF
:100970008091AF00882331F081508093AF008111C6
:1009800001C042D28091B000882369F08F5F8D3022
:1009900018F48093B00007C01092B00081E08093FB
:1009A000700080E032D280916E00882351F08F5F1A
:1009B00080936E00843628F08FEF8093630010924E
:1009C0006E0080916D00882351F08F5F80936D00E1
:1009D000843628F08FEF8093620010926D00809132
:1009E0006C00882351F08F5F80936C00843628F070
:1009F0008FEF8093610010926C0080916B008823D0
:100A000071F08F5F80936B00843648F08FEF809396
:100A1000B9008093BA008093BB0010926B000895D8
:100A2000CF939C012C5231092532310588F481E0A5
:100A30008093C6008091D1008F5F8093D100E091B8
:100A4000D200F0E0E853FF4F8081880F8F5F20C015
:100A50008A559109873C9D4420F51092C6008091EB
:100A6000D1008E3060F081E08093D0001092C800F9
:100A70001092D2001092C7001092D1007FC0109245
:100A8000D100E091D200F0E0E853FF4F8081880F61
:100A90008083809172008823A1F08150809372003E
:100AA00010C080917200843108F068C091E0980F06
:100AB000943119F09093720061C0855F8093720049
:100AC0005DC08091D200883008F058C08091D0007D
:100AD00081112FC08091C600813009F04CC08091F7
:100AE000C700811118C06CDDC0E08091D200C8172A
:100AF00040F4EC2FF0E0E853FF4F808166DDCF5FDC
:100B0000F4CF70DD8FEF8093D20080917100882345
:100B100081F081500CC080917100843160F591E0CA
:100B2000980F943119F09093710025C0855F8093E0
:100B300071008091D0008F5F8093D0008930F1F4F4
:100B40008091D200811107C09091C8009F3F19F495
:100B50009093D20013C0E82FF0E0E853FF4F2091AC
:100B6000C700908192279093C7008F5F8093D20037
:100B70001092D00003C081E08093D000CF910895FF
:100B800052D0C1D1BFDB7894C0E0D0E0A2D00097B2
:100B900009F046DF2BDD8111C7DE09D18823B1F3CF
:100BA000F9DAE6DEAAD08091A30082FF05C09CD0CE
:100BB000882311F099D0E8DA8091850087FFE6CF8D
:100BC000DF5FDA3010F0CF5FD0E04C2F50E0282FFD
:100BD0002F7330E042175307CCF286FF02C08BE040
:100BE00001C08CE09ED1C0E0D1CF1F920F920FB612
:100BF0000F9211248F939F939FB7809179008F5FFD
:100C0000809379008F3F39F480917800883019F013
:100C10008F5F809378009FBF9F918F910F900FBE41
:100C20000F901F901895B898C0988BB780628BBFB3
:100C3000A89A1ABC82E083BF12BE89B7826089BFBE
:100C4000089512BE10927900089522B7809179001C
:100C500090E0982F8827820F911D08951F920F9280
:100C60000FB60F9211242F933F934F935F936F937F
:100C70007F938F939F93AF93BF93CF93EF93FF9304
:100C8000CFB780917800883020F081E080937700A2
:100C90000DC0B09B06C0D5DF1092D4001092D300D7
:100CA00005C0D3DF9093D4008093D300CFBFFF91D2
:100CB000EF91CF91BF91AF919F918F917F916F9164
:100CC0005F914F913F912F910F900FBE0F901F900A
:100CD00018958091D3009091D400009721F0109244
:100CE000D4001092D300089580917800883018F0D5
:100CF00080917500089580E00895809176008F5F5F
:100D000080937600B09B08C0459B06C0909174000C
:100D10009F5F9093740005C0909173009F5F9093C4
:100D200073008F31B8F0909174008091730089172F
:100D300028F4981B9E3040F082E004C0891B8A3062
:100D400018F081E080937500109276001092740084
:100D50001092730008951F920F920FB60F921124F4
:100D60002F933F934F935F938F939F9390917C002A
:100D7000992391F081E08093D5008BB52FEF30E07F
:100D8000281B3109492F50E02417350714F41BBCE8
:100D900003C08BB5890F8BBD9F918F915F914F9150
:100DA0003F912F910F900FBE0F901F90189590912B
:100DB000D50080916400981720F01092D50081E052
:100DC000089580E0089590917E00981781F09091A9
:100DD0007B0091110CC080937E0098B3977E98BBE6
:100DE000813011F4C39A0895823009F4C49A0895A9
:100DF00090917D00981739F090917B00911103C07C
:100E000080937D008EBD08950895813061F490B780
:100E10009F7890BF9CB59F789CBDC498C39AC19A97
:100E200080937B000895811103C0C19810927B00CC
:100E300008951CBC811104C081E680BF80E205C01A
:100E4000813069F482E680BF80E180936400109273
:100E50007C0089B78F7D89BF89B7846015C08C30CD
:100E600039F489E680BF81E08093640080E408C0A3
:100E70008B3059F48AE680BF81E08093640080E281
:100E800080937C0089B7846289BF80917C008BBD90
:100E900008951F920F920FB60F9211242F933F9334
:100EA0004F935F936F937F938F939F93AF93BF9372
:100EB000EF93FF938091D50090916400891718F407
:100EC0008F5F8093D50080917A00882359F081301C
:100ED00029F480E0AEDF10927A0004C0AADF81E03E
:100EE00080937A00FF91EF91BF91AF919F918F9185
:100EF0007F916F915F914F913F912F910F900FBE16
:100F00000F901F90189587B38A6187BB88B3857E41
:100F100088BB80E08EDF1FBC1EBC1BBC8FEF8DBD6D
:100F2000089590917B00911102C080937A000895FA
:100F30000024552704C0080E591F880F991F0097D9
:100F400029F076956795B8F37105B9F7802D952F3F
:100F50000895E199FECF1FBA8EBBE09A99278DB311
:100F60000895262FE199FECF1FBA8EBBE09A8150DB
:100F70000DB2021639F01CBA2DBB0FB6F894E29AE6
:0A0F8000E19A0FBE0895F894FFCF28
:060F8A00FFFFFFFF200045
:00000001FF
