:100000006CC086C057C784C08AC81BC781C080C067
:100010007FC0D6C77DC07CC07BC07AC079C0DCC23F
:10002000DBC2DAC2D9C2D8C2D7C209C3DAC204C39A
:1000300003C302C301C300C3FFC2FEC2FDC2D7C2D5
:10004000D9C2DBC2F9C2F8C2F7C2F6C2F5C2F4C225
:10005000F3C2F2C2F1C2D4C2EFC2EEC2EDC2ECC230
:10006000D2C2EAC2D3C2D5C2E7C2E6C2E5C2E4C286
:10007000E3C2E2C2E1C2E0C2DFC2CEC2DDC2DCC284
:10008000DBC2DAC2D9C2D8C2D7C2D6C2C8C2D4C2B1
:10009000C9C2CBC2D1C2D0C2CFC2CEC2CDC2CCC2E5
:1000A000CBC2C6C2C5C2C4C2C3C2C2C2C1C2C0C220
:1000B000BFC2BEC2BDC2BCC2BBC2BAC2B9C2B8C254
:1000C000B7C2B6C2B5C2B4C2B3C2B2C2B1C2B0C284
:1000D000AFC2AEC2ADC2ACC2ABC211241FBECFE52F
:1000E000D1E0DEBFCDBF10E0A0E6B0E0E6E1F2E196
:1000F00002C005900D92A636B107D9F720E0A6E61A
:10010000B0E001C01D92A63DB207E1F763D681C8F9
:1001100077CFCF93DF93D82FC62F809160008D17B4
:1001200039F08D2F85D7D09360008FEF80936700D3
:10013000C0938600C13031F41092A6001092860060
:1001400080E08BD780918000C81718F4CC2341F051
:10015000C82F9091A600981718F4C1118093A6009B
:1001600080916700811125C080916600811123C0B4
:10017000909186008091A600981748F42091820003
:10018000211105C0C093A6008C2F67D714C0891712
:1001900048F420918100211105C0C093A6008C2F46
:1001A0005CD709C0981307C0C093A6008C2F55D701
:1001B00002C080E052D7DF91CF910895109266007F
:1001C000E62FEF70EE0F19F460E0A3DF0895E23040
:1001D00019F461E09EDF089564FDEF5FF0E0ED57F4
:1001E000FF4F608196DF0895482F10926600EFE779
:1001F000F0E021813581231768F58091830038175D
:1002000048F5603498F4832F821B70E090E0D6D7D5
:1002100099230CF4CF96082E892F000C881F990B78
:10022000000C881F991F622F680F28C0831B70E085
:100230006054710990E0C2D799230CF4CF96082E30
:10024000892F000C881F990B000C881F991F632FA2
:10025000680F14C080918300281778F4821B70E027
:1002600090E0ACD7992314F481589F4F880F892FC1
:10027000881F990B622F680F01C0660F842F49DF1A
:10028000089591E0909366006091AD0042DF08957B
:10029000809167008823F1F081508093670081117D
:1002A0006DC0909186008091A600981730F420913F
:1002B0008200211102C0D1D60895891730F420910F
:1002C0008100211102C0C9D60895981357C0892F03
:1002D000C4D60895809169008F5F803119F08093B2
:1002E0006900089510926900909168009F5F909353
:1002F000680080916600882309F18091A600209112
:100300008600821758F42091A400921337C08F5FA3
:100310008093A600A2D6109268000895281758F47A
:100320002091A40092132AC081508093A60095D6F4
:100330001092680008951092680008958091A600B8
:1003400020918600821758F420918100921316C0E4
:100350008F5F8093A60081D61092680008952817B9
:1003600058F420918200921309C081508093A60016
:1003700074D610926800089510926800089590E075
:10038000805090402CD708958F3F910509F010F4CC
:10039000F6DF089580E00895E199FECF90E0805067
:1003A000904025D7089569E083E4F6DF62E184E4B4
:1003B000F3DF6BE185E4F0DF64E286E4EDDF6EE21B
:1003C00087E4EADF67E388E4E7DF60E489E4E4DF09
:1003D00069E48AE4E1DF62E58BE4DEDF6BE58CE46F
:1003E000DBDF64E68DE4D8DF6DE68EE4D5DF66E71B
:1003F0008FE4D2DF60E880E5CFDF69E881E5CCDF1C
:1004000062E982E5C9DF6BE983E5C6DF64EA84E57A
:10041000C3DF6DEA85E5C0DF66EB86E5BDDF6FEB28
:1004200087E5BADF68EC88E5B7DF61ED89E5B4DF21
:100430006BED8AE5B1DF64EE8BE5AEDF6DEE8CE54A
:10044000ABDF66EF8DE5A8DF6FEF8EE5A5DF0895E2
:10045000EF92FF920F931F93CF93E199FECF80E02D
:100460008EDF8F3F11F450D049C00FE710E0C0E09D
:10047000CF5F8C2F84DFF80181938F01C630C1F7E5
:1004800081E17DDF8093A50082E179DF8093AC007C
:1004900083E175DF8093AB008DE171DF8093A30072
:1004A00082E26DDF8093AA0084E269DF8093A90075
:1004B00085E265DF8093A8008FE261DF809385008D
:1004C00088E35DDF8093A7008AE359DF8093AD0066
:1004D0008BE355DF8093A40007E810E00F2EF3EACA
:1004E000EF2EF0E0FF2EF02DC3E48C2F48DFF80153
:1004F00081938F01CF5FEE15FF05B9F7CF911F9163
:100500000F91FF90EF900895CF93C1E060E08C2FA2
:1005100043DFCF5FCF3FD1F763E081E03DDF60E0B5
:1005200082E03ADF60E083E037DF60E084E034DFE0
:100530006FEF85E031DF6FE786E02EDF63E087E075
:100540002BDF6DE088E028DF60EC81E125DF60E0F3
:1005500082E122DF60E083E11FDF66E08DE11CDFE6
:1005600066E082E219DF61E084E216DF6FEF85E288
:1005700013DF6AEC8FE210DF64E088E30DDF6FE7E2
:100580008AE30ADF63E08BE307DF0DDF60E080E0F2
:1005900003DF5EDFCF9108950F931F93CF93DF9317
:1005A0008F3F910511F008F04AC0C62F8C0181EFF2
:1005B000800F823038F08FE0E2DED82F80E1DFDE7E
:1005C000D8133DC0C8019927FC013197EE35F105DC
:1005D00098F5E15FFF4F0994FC01E258FF4FC0839B
:1005E0002BC0CD3011F0C83051F58EDF28C0C0933C
:1005F000A50022C0C093AC001FC0C093AB001CC0BC
:10060000C093A30019C0C093AA0016C0C093A9004C
:1006100013C0C093A80010C0C09385000DC0C09344
:10062000A7000AC0C093AD0007C0C093A40004C0D7
:10063000FC01EC5BFF4FC0836C2F802FADDEDF91A0
:10064000CF911F910F910895FF920F931F93CF9316
:10065000DF938C01F62E862F8770C1E0D0E002C0B8
:10066000CC0FDD1F8A95E2F7C8018EDEF3FE03C0D2
:100670006C2F682B03C0C0956C2F6823C8018CDFDA
:10068000DF91CF911F910F91FF90089581E0F2D4F7
:1006900081E08093B0008093700008951092AE00C6
:1006A0001092BD0008959091AE00983040F4E92F6B
:1006B000F0E0E254FF4F80839F5F9093AE00089577
:1006C00081E08093BD0008958091BD00882319F0DA
:1006D0001092BD0081E008959091BE008091B1001C
:1006E0009813B4C06091BF008091B2006813AEC08F
:1006F0002091C0008091B3002813A8C092FD2BC0A8
:1007000020916F0030E021503109220F331F220F5A
:10071000331F892F8370280F311D2F5F3F4F93FFA9
:1007200009C0C90139DF80916A00846080936A0042
:10073000ADDF0895C90128DE8093BC008091BC0024
:100740009091B200981390C080916A00826080936B
:100750006A009CDF0895892F8770853059F4809155
:100760006A0080FD81C060936F00816080936A00A1
:100770008DDF0895843011F593FF0CC08DE190E07A
:100780000BDF80916A0082FD6FC0846080936A00F5
:100790007DDF08958DE190E0F7DD8093BC008091CE
:1007A000BC009091B20098135FC080916A0081FDF7
:1007B0005BC0826080936A0069DF0895863011F51E
:1007C00093FF0CC087E090E0E7DE80916A0082FD35
:1007D0004BC0846080936A0059DF089587E090E001
:1007E000D3DD8093BC008091BC009091B20098133F
:1007F0003BC080916A0081FD37C0826080936A00AF
:1008000045DF0895873081F593FF0CC088E090E0C4
:10081000C3DE80916A0082FD27C0846080936A00F5
:1008200035DF089588E090E0AFDD8093BC008091D3
:10083000BC009091B200981317C080916A0081FDAE
:1008400013C0826080936A0021DF0895E1EBF0E03D
:100850009083AEEBB0E011968C9111978183129644
:100860008C9182831092700008959091BE008091C7
:10087000B100981337C02091BF008091B2002813B7
:1008800031C06091C0008091B30068132BC03091DB
:10089000C1008091B400381325C08091700081118F
:1008A00033C0892F837030E0280F311D2F5F3F4FF9
:1008B0009C70983029F09C3089F0943029F506C05E
:1008C00064FF22C0C901C0DEE1DE0895C9015CDD1C
:1008D0009091B300891318C0D9DE0895C9015CDE78
:1008E000D5DE0895E1EBF0E09083AEEBB0E0119639
:1008F0008C911197818312968C9112978283139613
:100900008C9183831092700008958091AE008330A3
:1009100009F58091BE00811110C08091BF00811146
:1009200006C18091C000811102C18EE18093AF00A9
:1009300010926A0081E09DD308958F3F59F4809111
:10094000BF00811107C08091C0008F3F19F4109241
:10095000AF0008952091AB00222309F4AFC080912D
:10096000BE0088230CF4EBC09091BF00907E903EB7
:1009700009F0A1C0E1C030E08F7790E02817390777
:1009800009F0E0C0BBC09091A30095FD9DC090917F
:100990007F008913D7C081E0B2C0982F907C903C33
:1009A00009F0D0C09091A30095FFCCC09091A50014
:1009B0009813C8C09091BF008091AC009813C2C03A
:1009C00082E09DC03F713F3109F0BCC0FC01E254A0
:1009D000FF4F8181682F6F7790916200691318C073
:1009E000882334F48091A30080FD08C081E009C011
:1009F0008091A30080FD04C082E003C082E001C0BA
:100A000081E0F2DB8FEF8093620010926D00089519
:100A10006093620081E080936D00089560916100B1
:100A2000631318C08FEF8093610010926C0065FF14
:100A300006C08091A30080FD08C081E009C08091BC
:100A4000A30080FD04C082E003C082E001C081E019
:100A5000B5DB08953093610081E080936C000895C8
:100A6000A9EBB0E03C93FC01E254FF4F8181119669
:100A70008C931197828112968C9381E080936B0006
:100A8000089510926B0023FF5DC022FF0AC02370FF
:100A9000822F90E0982F8827840F911D01967CDD8E
:100AA00008952370822F90E0982F8827840F911D3E
:100AB0000196CADD089581115ECF08958091BE0030
:100AC00088230CF060CF69CF982F907C903CD1F5B3
:100AD0006DCF2091B9002313C3CF4091BA00FC0120
:100AE000E254FF4F51815413BBCF6091BB00FC0116
:100AF000E254FF4F5281651721F2B2CF81E090E0BE
:100B0000FC01E254FF4F3081232F207E203409F472
:100B100085CF20F4203209F455CF0895203609F40A
:100B20007DCF203EB1F208958091BE001DCF20916F
:100B3000AB00222319F2F8CF8091BE0024CF809120
:100B4000BE002BCF08958091AE00823061F190916C
:100B5000AF00992339F19091BE00292F20772037DB
:100B600009F52EE12093AF00833019F08430C1F0F5
:100B70000895911109C08091BF0081110FC080912B
:100B8000C00081110BC008959F3F41F48091BF00C8
:100B9000811104C08091C0008F3F29F09DDD089530
:100BA00064DE0895B2DE08958091AF00882331F0AD
:100BB00081508093AF00811101C05BD28091B00061
:100BC000882369F08F5F8D3018F48093B00007C0E0
:100BD0001092B00081E08093700080E04BD2809151
:100BE0006E00882351F08F5F80936E00843628F06A
:100BF0008FEF8093630010926E0080916D008823C8
:100C000051F08F5F80936D00843628F08FEF8093D2
:100C1000620010926D0080916C00882351F08F5F0C
:100C200080936C00843628F08FEF809361001092DF
:100C30006C0080916B00882369F08F5F80936B005C
:100C4000843640F0E9EBF0E08FEF8083818382838C
:100C500010926B000895CF939C012C5231092532DC
:100C60003105C8F481E08093C6008091D1008F5F88
:100C70008093D100E091D200F0E0E853FF4F8081F3
:100C8000880F8F5F8083809172008823E9F1815003
:100C90008093720039C08A559109873C9D4420F5A4
:100CA0001092C6008091D1008E3060F081E0809378
:100CB000D0001092C8001092D2001092C70010927B
:100CC000D10086C01092D100E091D200F0E0E8534C
:100CD000FF4F8081880F8083809172008823A1F06C
:100CE00081508093720010C080917200843108F0AE
:100CF0006FC091E0980F943119F09093720068C022
:100D0000855F8093720064C08091D2008F3F09F4A8
:100D10005FC08091D000811135C08091C6008130C4
:100D200009F053C08091C70081111DC0B7DC8091CC
:100D3000D200882361F0C0E0EC2FF0E0E853FF4FD1
:100D40008081B1DCCF5F8091D200C817A8F3B8DCF6
:100D50008FEF8093D20080917100882399F08150A9
:100D6000809371000FC080917100843170F591E023
:100D7000980F943119F09093710027C0855F80938C
:100D8000710023C08091D0008F5F8093D0008930A4
:100D9000F9F48091D200811108C09091C8009F3F62
:100DA00021F48FEF8093D20013C0E82FF0E0E853D6
:100DB000FF4F2091C700908192279093C7008F5FCB
:100DC0008093D2001092D00003C081E08093D000C5
:100DD000CF91089554D0DDD13BDB7894D0E0C0E0D2
:100DE000A5D0009709F037DF6FDC8111ACDE14D19C
:100DF0008823B1F34DDAD8DEADD08091A30082FF15
:100E000005C09FD0882311F09CD03BDA80918500EB
:100E1000882334F7CF5FCA3010F0DF5FC0E04D2F7A
:100E200050E0282F2F7330E042175307CCF286FF93
:100E300004C08BE0BCD1D0E0D3CF8CE0B8D1D0E0FF
:100E4000CFCF1F920F920FB60F9211248F939F93C3
:100E50009FB7809179008F5F809379008F3F39F43D
:100E600080917800883019F08F5F809378009FBF61
:100E70009F918F910F900FBE0F901F901895B8986B
:100E8000C0988BB780628BBFA89A1ABC82E083BFE0
:100E900012BE89B7826089BF089512BE1092790090
:100EA000089522B78091790090E0982F8827820FCB
:100EB000911D08951F920F920FB60F9211242F9338
:100EC0003F934F935F936F937F938F939F93AF93D2
:100ED000BF93CF93EF93FF93CFB780917800883083
:100EE00028F081E080937700CFBF0EC0B09B06C092
:100EF000D4DF1092D4001092D30005C0D2DF9093BB
:100F0000D4008093D300CFBFFF91EF91CF91BF91D9
:100F1000AF919F918F917F916F915F914F913F9191
:100F20002F910F900FBE0F901F9018958091D300B6
:100F30009091D400009721F01092D4001092D30029
:100F4000089580917800883018F080917500089598
:100F500080E00895809176008F5F80937600B09B4B
:100F60000EC0459B06C0909174009F5F90937400E3
:100F70000BC0909173009F5F9093730005C0909198
:100F800073009F5F909373008F31C8F0909174004D
:100F900080917300891738F4981B9E3050F082E0DE
:100FA0008093750006C0891B8A3018F081E0809319
:100FB00075001092760010927400109273000895DC
:100FC0001F920F920FB60F9211242F933F934F93BE
:100FD0005F938F939F9380917C00882391F091E0A1
:100FE0009093D5009BB52FEF30E0291B3109482F96
:100FF00050E02417350714F41BBC03C09BB5890FC0
:101000008BBD9F918F915F914F913F912F910F9049
:101010000FBE0F901F9018959091D500809164009D
:10102000981720F01092D50081E0089580E008958F
:1010300090917E00981781F090917B0091110CC0E7
:1010400080937E0098B3977E98BB813011F4C39A49
:101050000895823009F4C49A089590917D009817FC
:1010600039F090917B00911103C080937D008EBD7B
:1010700008950895813069F480B78F7880BF8CB56A
:101080008F788CBDC498C39AC19A81E080937B000D
:101090000895811103C0C19810927B0008951CBC73
:1010A00081110EC081E680BF80E2809364001092BF
:1010B0007C0089B78F7D89BF89B7846089BF2BC0C9
:1010C000813071F482E680BF80E1809364001092E9
:1010D0007C0089B78F7D89BF89B7846089BF1BC0B9
:1010E0008C3061F489E680BF81E08093640080E405
:1010F00080937C0089B7846289BF0DC08B3059F41E
:101100008AE680BF81E08093640080E280937C0067
:1011100089B7846289BF80917C008BBD08951F923E
:101120000F920FB60F9211242F933F934F935F931B
:101130006F937F938F939F93AF93BF93EF93FF939F
:101140008091D50090916400891718F48F5F809387
:10115000D50080917A00882359F0813029F480E00D
:101160009EDF10927A0004C09ADF81E080937A00BB
:10117000FF91EF91BF91AF919F918F917F916F916F
:101180005F914F913F912F910F900FBE0F901F9045
:10119000189587B38A6187BB88B3857E88BB80E05A
:1011A0007EDF1FBC1EBC1BBC8FEF8DBD08959091D0
:1011B0007B00911102C080937A0008950024552786
:1011C00004C0080E591F880F991F009729F07695C3
:1011D0006795B8F37105B9F7802D952F0895E199BA
:1011E000FECF1FBA8EBBE09A99278DB30895262FA4
:1011F000E199FECF1FBA8EBBE09A81500DB2021664
:1012000039F01CBA2DBB0FB6F894E29AE19A0FBEE2
:061210000895F894FFCFE1
:06121600FFFFFFFF2000B6
:00000001FF
